:060000000A128A110C280F
:10000800FE00030EF0000A08F1000A128A11C22E3F
:100018000A128A110F280A128A1565270A128A11EC
:10002800DB000A128A1566270A128A11DC000A12F6
:100038008A1567270A128A11DD000A128A156827AD
:100048000A128A11DE0083132030840047300A1216
:100058008A1569270A128A11FA01FB0183010A121B
:100068008A1136280A128A11DE250A128A110A1202
:100078008A157A270A128A115230F2000030F300EA
:100088000A128A158C270A128A118030F200003071
:10009800F3000A128A158C270A128A111330F2000B
:1000A8000030F3000A128A158C270A128A110A12E4
:1000B8008A1583270A128A111A3083120313D6006D
:1000C800F730D500D50B6628D60B66286B280A12A0
:1000D8008A15A3270A128A1183120313D901DA0198
:1000E800F601F60A01300A128A15E0270A128A1167
:1000F80001300A128A11D4270A128A110330831296
:100108000313D7008A30D6005530D500D50B8A287E
:10011800D60B8A28D70B8A280A128A15A3270A120F
:100128008A118312031385150A128A157A270A126F
:100138008A112130F2000030F3000A128A158C2748
:100148000A128A110030F200F3000A128A11792784
:100158000A128A11720883120313BC000A128A1544
:1001680083270A128A11A030831203133C02031C4E
:10017800BE28BF28C5282F30DD000030DE00BB01B7
:10018800BB0A0A128A157A270A128A115130F2001C
:100198000030F3000A128A158C270A128A110030DF
:1001A800F200F3000A128A1179270A128A117308D9
:1001B80083120313B2007208B1000A128A1583274A
:1001C8000A128A110A128A157A270A128A115230DB
:1001D800F2000030F3000A128A158C270A128A11DD
:1001E800B430F2000030F3000A128A158C270A1284
:1001F8008A110A128A1571270A128A115330F200DD
:100208000030F3000A128A158C270A128A1101306D
:10021800F2000030F3000A128A1179270A128A11B3
:10022800720883120313C5000130F2000030F30096
:100238000A128A1179270A128A1172088312031383
:10024800C4000130F2000030F3000A128A11792745
:100258000A128A11720883120313C5000030F200D3
:10026800F3000A128A1179270A128A117208831276
:100278000313C4000A128A1583270A128A110A1264
:100288008A157A270A128A115230F2000030F300D8
:100298000A128A158C270A128A11B830F200003027
:1002A800F3000A128A158C270A128A110A128A1573
:1002B80071270A128A115330F2000030F3000A1233
:1002C8008A158C270A128A110130F2000030F300D7
:1002D8000A128A1179270A128A11720883120313E3
:1002E800C3000030F200F3000A128A1179270A12BB
:1002F8008A11720883120313C2000A128A1583270F
:100308000A128A110A128A157A270A128A11523099
:10031800F2000030F3000A128A158C270A128A119B
:10032800BA30F2000030F3000A128A158C270A123C
:100338008A110A128A1571270A128A115330F2009B
:100348000030F3000A128A158C270A128A1101302C
:10035800F2000030F3000A128A1179270A128A1172
:10036800720883120313C1000030F200F3000A126E
:100378008A1179270A128A11720883120313C0009E
:100388006430F2000030F3004408D500D601550867
:10039800F4005608F5000A128A11B2240A128A11CA
:1003A8007208303E83120313AA000A30CB000030D3
:1003B800CC000A30F2000030F3004408D500D60122
:1003C8005508F4005608F5000A128A11B2240A12D8
:1003D8008A11730883120313CE007208CD000A1223
:1003E8008A1183250A128A11831203134B08303E9F
:1003F800AB000A30CB000030CC004408D500D60151
:100408005508CD005608CE000A128A1183250A1213
:100418008A11831203134B08303EAC006430F2009B
:100428000030F3004208D500D6015508F4005608FC
:10043800F5000A128A11B2240A128A117208303E93
:1004480083120313A7000A30CB000030CC000A3017
:10045800F2000030F3004208D500D6015508F40038
:100468005608F5000A128A11B2240A128A11730872
:1004780083120313CE007208CD000A128A11832555
:100488000A128A11831203134B08303EA8000A305F
:10049800CB000030CC004208D500D6015508CD006D
:1004A8005608CE000A128A1183250A128A1183126D
:1004B80003134B08303EA9006430F2000030F3000B
:1004C8004008D500D6015508F4005608F5000A1270
:1004D8008A11B2240A128A117208303E8312031359
:1004E800A4000A30CB000030CC000A30F200003003
:1004F800F3004008D500D6015508F4005608F50069
:100508000A128A11B2240A128A1173088312031379
:10051800CE007208CD000A128A1183250A128A11A8
:10052800831203134B08303EA5000A30CB0000307D
:10053800CC004008D500D6015508CD005608CE009D
:100548000A128A1183250A128A11831203134B088F
:10055800303EA600F601F60A01300A128A15E02795
:100568000A128A1183120313440842020318BD2A8F
:10057800BE2ACF2A440840020318C32AC42ACF2A15
:1005880012300A128A11D4270A128A11831203130D
:10059800AD01AE01002B420844020318D42AD52A23
:1005A800E82A420840020318DA2ADB2AE82A1A3025
:1005B8000A128A11D4270A128A11013083120313EE
:1005C800AD000030AE00002B400844020318ED2AAD
:1005D800EE2A002B400842020318F32AF42A002BC3
:1005E8000A300A128A11D4270A128A110230831299
:1005F8000313AD000030AE002D082E04031D052B9B
:10060800062B0B2B0F30AF000030B000212B2D0331
:100618002E04031D102B112B162B1930AF000030A0
:10062800B000212B02302D062E04031D1C2B1D2B80
:10063800212B2330AF000030B000E830C700033072
:10064800C8003208CA003108C9000A128A117C267B
:100658000A128A11831203134708303EA00064303F
:10066800C7000030C8003208F5003108F400E8304F
:10067800F2000330F3000A128A1107270A128A11BE
:10068800730883120313CA007208C9000A128A1178
:100698007C260A128A11831203134708303EA100F0
:1006A8000A30C7000030C8003208F5003108F400ED
:1006B8006430F2000030F3000A128A1107270A1288
:1006C8008A11730883120313CA007208C9000A1238
:1006D8008A117C260A128A11831203134708303EB6
:1006E800A2000A30F2000030F3003208F5003108A9
:1006F800F4000A128A1107270A128A117208303E7A
:1007080083120313A300F60102300A128A15E027A8
:100718000A128A1125300A128A11D4270A128A115C
:100728008312031320080A128A15B0270A128A11A5
:100738008312031321080A128A15B0270A128A1194
:100748008312031322080A128A15B0270A128A1183
:100758002E300A128A15B0270A128A11831203133F
:1007680023080A128A15B0270A128A11E830F20003
:100778000330F300831203133C08D500D601550853
:10078800F4005608F5000A128A11B2240A128A11D6
:100798007208303E83120313A0006430F200003068
:1007A800F3003C08D500D6015508CD005608CE0008
:1007B800E830CB000330CC000A128A1183250A12D4
:1007C8008A11831203134C08F5004B08F4000A122F
:1007D8008A11B2240A128A117208303E8312031356
:1007E800A1000A30F2000030F3003C08D500D60121
:1007F8005508CD005608CE006430CB000030CC0040
:100808000A128A1183250A128A11831203134C08CB
:10081800F5004B08F4000A128A11B2240A128A1150
:100828007208303E83120313A2000A30CB00003056
:10083800CC003C08D500D6015508CD005608CE009E
:100848000A128A1183250A128A11831203134B088C
:10085800303EA3000930F60002300A128A15E0275C
:100868000A128A1122300A128A11D4270A128A110E
:100878008312031320080A128A15B0270A128A1154
:100888008312031321080A128A15B0270A128A1143
:100898008312031322080A128A15B0270A128A1132
:1008A8002E300A128A15B0270A128A1183120313EE
:1008B80023080A128A15B0270A128A1101308312F6
:1008C8000313D9070318DA0A0030DA070130D50014
:1008D8005508B9073B03031D722C732C772C013084
:1008E800D5005508BA073C3059065A04031D7D2C1B
:1008F8007E2C842C0A30DD000030DE00D901DA01BC
:100908005A303A06031D892C8A2C902C2D30DB0096
:100918000030DC00BB01BA013C303906031D952CC0
:10092800962C9B2C0A30DB000030DC00B9010D301E
:10093800F60001300A128A15E0270A128A1183127A
:1009480003135908303ED80058080A128A15B027F0
:100958000A128A1195280A128A110C288312031385
:10096800C801F31FB82CB92CC02CF209F309F20AFC
:100978000319F30AC801C80AF51FC32CC42CCD2CCF
:10098800F409F509F40A0319F50A0130F6007608A6
:10099800C806C901CA01720873040319D42CD52CDE
:1009A8000C2DC701C70AE32C01300310F20DF30D1B
:1009B800FF3E031DD92C0130F6007608C707F31F48
:1009C800E62CE72CD82C01300310C90DCA0DFF3EC8
:1009D800031DE82C73087502031DF42C72087402B9
:1009E800031CF72CF82CFF2C7208F4027308031C64
:1009F800F503F502491401300310F30CF20CFF3E25
:100A0800031D002D0130C702031D0B2D0C2DE72CF3
:100A180048080319102D112D162DC909CA09C90A2C
:100A28000319CA0A4A08F3004908F200080000300E
:100A380083120313CB000030CA000030C900003015
:100A4800C800750874047304720403192C2D2D2D25
:100A58007A2DCC01CC0A3D2D0130C7000310F20DD0
:100A6800F30DF40DF50DC70B322D0130C700470803
:100A7800CC07F51F402D412D302D0130C700031044
:100A8800C80DC90DCA0DCB0DC70B432D75087902CA
:100A9800031D582D74087802031D582D730877021A
:100AA800031D582D72087602031C5B2D5C2D6B2DDF
:100AB8007208F6027308031C730FF7027408031C0C
:100AC800740FF8027508031C750FF90248140130F9
:100AD8000310F50CF40CF30CF20CFF3E031D6C2D07
:100AE8000130CC02031D792D7A2D412D4B08F500DC
:100AF8004A08F4004908F3004808F2000800F90120
:100B080083120313CE1F892D8A2D912DCD09CE096D
:100B1800CD0A0319CE0AF901F90ACC1F942D952D97
:100B28009A2DCB09CC09CB0A0319CC0A4B084C04E3
:100B380003199F2DA02DCF2DF801F80AAE2D0130F5
:100B48000310CB0DCC0DFF3E031DA42D0130F70083
:100B58007708F807CC1FB12DB22DA32D4C084E02F3
:100B6800031DB82D4B084D02031CBB2DBC2DC22DF7
:100B78004B08CD024C08031CCE03CE0201300310F3
:100B8800CC0CCB0CFF3E031DC32D0130F802031D16
:100B9800CE2DCF2DB22D79080319D32DD42DD92DD3
:100BA800CD09CE09CD0A0319CE0A4E08CC004D084E
:100BB800CB000800831603178801890183160313E5
:100BC80085018312031385010F30831603138600F2
:100BD8008801103087008312031386018801831669
:100BE800031389018312031309107030831603134A
:100BF8008F040F140A128A112F260A128A11003044
:100C080083120313D0000130CF008630CE00A0300D
:100C1800CD000A128A1141270A128A11831603137A
:100C280081128111F8308105EC30831203138100A1
:100C38000B118B160B178B178B178B150B10831635
:100C480003138113161415149614951416151515F7
:100C580096159515080000300A128A11F9270A120C
:100C68008A112730F700F530F600F60B392EF70B0E
:100C7800392E30300A128A15C6270A128A110B300B
:100C8800F7006230F600F60B472EF70B472E0000F0
:100C980030300A128A15C6270A128A114230F60025
:100CA800F60B542E000030300A128A15C6270A1295
:100CB8008A1138300A128A15C6270A128A1100309A
:100CC8000A128A15C6270A128A110C300A128A15C6
:100CD800C6270A128A1100300A128A15C6270A1274
:100CE8008A1106300A128A15C6270A128A110800C4
:100CF80083120313CC01CD01470848040319852E3C
:100D0800862EBD2ECB01CB0A942E01300310C70DC1
:100D1800C80DFF3E031D8A2E0130F8007808CB0766
:100D2800C81F972E982E892E01300310CC0DCD0D9B
:100D3800FF3E031D992E48084A02031DA52E4708A9
:100D48004902031CA82EA92EB02E4708C90248083C
:100D5800031CCA03CA024C1401300310C80CC70C88
:100D6800FF3E031DB12E0130CB02031DBC2EBD2E4C
:100D7800982E4D08C8004C08C70008000B1DC52E4A
:100D8800C62E002F0130FA070318FB0A0030FB07B4
:100D9800831203135E087B06031DD42E5D087A06B2
:100DA800031DD72ED82ED92E05105C087B06031DEF
:100DB800DF2E5B087A06031DE22EE32EE42E851053
:100DC80030087B06031DEA2E2F087A06031DED2E38
:100DD800EE2EEF2E0511D6307A06031DF72E7B0373
:100DE800031DF72EF82EFD2E051485140515FA019E
:100DF800FB01EC3081000B1171088A00700E830032
:100E0800FE0E7E0E09007208730403190C2F0D2FB5
:100E18003C2FF701F70A1B2F01300310F20DF30DD9
:100E2800FF3E031D112F0130F6007608F707F31F68
:100E38001E2F1F2F102F73087502031D252F7208F0
:100E48007402031C282F292F2F2F7208F40273080D
:100E5800031CF503F50201300310F30CF20CFF3EFE
:100E6800031D302F0130F702031D3B2F3C2F1F2F8E
:100E78007508F3007408F200080028308312031381
:100E88009400831603139101831203134D08D100B4
:100E98004E08D2004F08D3005008D4000230031087
:100EA800D10DD20DD30DD40DFF3E031D532F540881
:100EB800F5005308F4005208F3005108F20000301E
:100EC800F9007A30F8001230F7000030F6000A1204
:100ED8008A111B250A128A117208FF3E8316031312
:100EE800930094018715071608000A128A15962799
:100EF8000A128A118316031391150A128A15962766
:100F08000A128A11831203131308F400F5017408F6
:100F1800F6007508F7000A128A1596270A128A1130
:100F280072037304031D992F9A2F9E2F83160313A0
:100F38009112A12F83160313911611167708F30047
:100F48007608F200080007308A000408840A82073D
:100F580000345334743461347234743469346E3404
:100F68006734003443344F344C344F3452342034D3
:100F78004134003443344F344C344F3452342034E9
:100F88005234003443344F344C344F3452342034C8
:100F98005634003444343A34003450343A3400344B
:100FA800F700F501F601EB2F7508770784000A12A0
:100FB8008A11A7270A128A110A128A15B0270A125B
:100FC8008A110130F5070318F60A0030F60775088C
:100FD800770784000A128A11A7270A128A11003A91
:100FE800031DF72FF82FD82F0800F200720883127C
:060FF8000313880008004D
:101ECA000A3400340A34003464008001840A0406A7
:101EDA000319003404066A2F0A128A1596270A1271
:101EEA008A1583160313911408000A128A15962775
:101EFA000A128A1583160313111408000A128A1586
:101F0A0096270A128A1583160313111508000A1256
:101F1A008A1596270A128A157208831203139300E8
:101F2A0008008316031314199B2F9C2F962F110850
:101F3A001F39031DA12FA22F962F080000300A1265
:101F4A008A15C6270A128A1501300A128A15C62767
:101F5A000A128A150800F4008312031389147408FC
:101F6A000A128A11F9270A128A158312031309150C
:101F7A001A30F300F30BBF2F000083120313091169
:101F8A000800F50083120313891075080A128A11D2
:101F9A00F9270A128A158312031309150B30F40064
:101FAA006230F300F30BD72FF40BD72F0000831204
:101FBA00031309110800F7007703031DE52FE62F25
:101FCA00F02F76087F3EF80078080A128A15C6278D
:101FDA000A128A15FF2F02307706031DF52FF62FF6
:101FEA00FF2F7608BF3EF80078080A128A15C6271E
:061FFA000A128A1508001E
:08400000FF3FFF3FFF3FFF3FC0
:04400E00D420FF3F7C
:00000001FF
