:060000000A128A1110280B
:10000800FE00030E83120313C1000A08C2007F0812
:10001800C3000A168A11DF280A128A1113288317C7
:10002800DE30FD001C30FE008230FF00CA30840044
:100038000A168A1573240A128A1183135730FD0091
:100048001C30FE004530FF00513084000A168A1526
:1000580073240A128A1183160317DE01DF01E001F7
:10006800E10183120313C401C501C601C701C80118
:10007800C901CA01CB01CC01CD01CE01CF01D0010C
:1000880083010A128A1148280A168A151E260A129E
:100098008A11803083160313B0000030B1000A12B1
:1000A8008A1500200A128A110A168A1553240A1280
:1000B8008A11013083160317C2000030C3000530CF
:1000C8000A168A1560240A128A1183160317BE00BD
:1000D800BF01C001C101410883160313A4008316A0
:1000E8000317400883160313A300831603173F085A
:1000F80083160313A200831603173E0883160313FF
:10010800A10000300A168A116F210A128A1183167B
:100118000313240883160317E10083160313230827
:1001280083160317E00083160313220883160317A8
:10013800DF0083160313210883160317DE008312DA
:100148000313061AA828A928B228861AAC28AD28AD
:10015800B2280A128A15AD240A128A1183160313CB
:10016800A401A40A01300A168A1539250A128A112F
:100178001F300A168A15CC250A128A118316031312
:10018800A401A40A02300A168A1539250A128A110E
:100198002E300A168A15CC250A128A1183160317DF
:1001A800610883160313A3008316031760088316D8
:1001B8000313A200831603175F0883160313A10015
:1001C800831603175E0883160313A0000A168A1500
:1001D80096240A128A110A3083160313BC000030D1
:1001E800BD000A168A155B250A128A111530831676
:1001F8000317C0004B30BF00BD30BE00BE0B022944
:10020800BF0B0229C00B022909290A168A15532493
:100218000A128A1183160313A401A40A01300A16CC
:100228008A1539250A128A1145300A168A15CC25ED
:100238000A128A111F3083160317C0007130BF00DD
:100248001D30BE00BE0B2629BF0B2629C00B262950
:100258002D290A168A1553240A128A110A30831680
:100268000313BC000030BD000A168A155B250A126C
:100278008A110A30831603179000003091000A167D
:100288008A1100200A128A11831603171308831291
:100298000313CB0083160317120883120313CA0033
:1002A80083160317110883120313C9008316031753
:1002B800100883120313C80083160313A401A40AA9
:1002C80001300A168A1539250A128A1156300A167B
:1002D8008A15CC250A128A11092F3F30DD0080309B
:1002E800DC000030DB000030DA005D088316031301
:1002F800D600831603175C0883160313D5008316EC
:1003080003175B0883160313D400831603175A08D0
:1003180083160313D300831203134B0883160313A6
:10032800DA00831203134A0883160313D9008312D1
:100338000313490883160313D800831203134808CC
:1003480083160313D7000A168A11E8220A128A11A3
:1003580083160313560883120313CB008316031363
:10036800550883120313CA00831603135408831213
:100378000313C90083160313530883120313C80019
:100388004B0883160313DA00831203134A088316F3
:100398000313D90083120313490883160313D800E3
:1003A80083120313480883160313D7004430D6007A
:1003B8007A30D5000030D4000030D3000A168A11F4
:1003C800E8220A128A1183160313560883160317A4
:1003D8009300831603135508831603179200831698
:1003E8000313540883160317910083160313530845
:1003F8008316031790000A168A1151200A128A11CF
:10040800831603171008303EC4006430A40000307F
:10041800A500831203134B08831603179300831256
:1004280003134A088316031792008312031349081B
:1004380083160317910083120313480883160317C2
:1004480090000A168A1151200A128A11831603177E
:100458001108A1001008A000E8309E0003309F009A
:100468000A168A15D0260A128A11831603171F083E
:10047800A7001E08A6000A168A1597270A128A11CD
:10048800831603172408303EC5000A309E0000304A
:100498009F000A30A4000030A500831203134B0804
:1004A800831603179300831203134A08831603174E
:1004B80092008312031349088316031791008312CD
:1004C800031348088316031790000A168A1151204F
:1004D8000A128A11831603171108A7001008A6002C
:1004E8000A168A1597270A128A11831603172508F0
:1004F800A1002408A0000A168A15D0260A128A111B
:10050800831603171E08303EC6000A309E000030CE
:100518009F00831203134B0883160317930083125B
:1005280003134A088316031792008312031349081A
:1005380083160317910083120313480883160317C1
:1005480090000A168A1151200A128A11831603177D
:100558001108A1001008A0000A168A15D0260A1250
:100568008A11831603171E08303EC7000A309E0002
:1005780000309F00831203134B0883160313B00047
:10058800831203134A0883160313AF00831203135D
:10059800490883160313AE00831203134808831611
:1005A8000313AD004130AC002030AB000030AA008E
:1005B8000030A9000A128A1568210A128A118316C6
:1005C80003132C08831603179300831603132B08B1
:1005D800831603179200831603132A08831603173A
:1005E80091008316031329088316031790000A162F
:1005F8008A1151200A128A11831603171108A100C3
:100608001008A0000A168A15D0260A128A11831625
:1006180003171E08303EC80083160313A401A40A5A
:1006280002300A168A1539250A128A118316031709
:1006380044080A168A15FD240A128A11831603171C
:1006480045080A168A15FD240A128A11831603170B
:1006580046080A168A15FD240A128A1183160317FA
:1006680047080A168A15FD240A128A112E300A161E
:100678008A15FD240A128A118316031748080A16D8
:100688008A15FD240A128A1167300A168A15FD2474
:100698000A128A111B2F4430DD007A30DC0000304A
:1006A800DB000030DA005D0883160313D6008316DA
:1006B80003175C0883160313D500831603175B081A
:1006C80083160313D400831603175A0883160313DB
:1006D800D300831203134B0883160313DA00831223
:1006E80003134A0883160313D90083120313490816
:1006F80083160313D80083120313480883160313C1
:10070800D7000A168A11E8220A128A1183160313DF
:10071800560883120313CB0083160313550883125C
:100728000313CA0083160313540883120313C90062
:1007380083160313530883120313C8004B08831648
:100748000313DA00831203134A0883160313D9002C
:1007580083120313490883160313D8008312031363
:10076800480883160313D7004430D6007A30D500E2
:100778000030D4000030D3000A168A11E8220A1289
:100788008A118316031356088316031793008316DA
:10079800031355088316031792008316031354088E
:1007A8008316031791008316031353088316031740
:1007B80090000A168A1151200A128A11831603170B
:1007C8001008303EC4006430A4000030A500831235
:1007D80003134B08831603179300831203134A0865
:1007E800831603179200831203134908831603170D
:1007F80091008312031348088316031790000A1602
:100808008A1151200A128A11831603171108A100B0
:100818001008A000E8309E0003309F000A168A15D1
:10082800D0260A128A11831603171F08A7001E086C
:10083800A6000A168A1597270A128A118316031723
:100848002408303EC5000A309E0000309F000A3060
:10085800A4000030A500831203134B088316031766
:100868009300831203134A08831603179200831216
:1008780003134908831603179100831203134808CA
:100888008316031790000A168A1151200A128A113A
:10089800831603171108A7001008A6000A168A1560
:1008A80097270A128A11831603172508A10024081E
:1008B800A0000A168A15D0260A128A118316031771
:1008C8001E08303EC6000A309E0000309F0083128A
:1008D80003134B08831603179300831203134A0864
:1008E800831603179200831203134908831603170C
:1008F80091008312031348088316031790000A1601
:100908008A1151200A128A11831603171108A100AF
:100918001008A0000A168A15D0260A128A11831612
:1009280003171E08303EC7000A309E0000309F00A3
:10093800831203134B0883160317930083120313C0
:100948004A08831603179200831203134908831673
:1009580003179100831203134808831603179000A6
:100968000A168A1151200A128A11831603171108D0
:100978009900100898000A309A0000309B000A1667
:100988008A15A5250A128A11831603171908A100CA
:100998001808A0000A168A15D0260A128A1183168A
:1009A80003171E08303EC80083160313A401A40AC7
:1009B80002300A168A1539250A128A118316031776
:1009C80044080A168A15FD240A128A118316031789
:1009D80045080A168A15FD240A128A118316031778
:1009E80046080A168A15FD240A128A118316031767
:1009F80047080A168A15FD240A128A112E300A168B
:100A08008A15FD240A128A118316031748080A1644
:100A18008A15FD240A128A114B300A168A15FD24FC
:100A28000A128A1167300A168A15FD240A128A11D9
:100A38001B2F4130DD00E230DC00CC30DB00CD3054
:100A4800DA005D0883160313D600831603175C08C3
:100A580083160313D500831603175B088316031345
:100A6800D400831603175A0883160313D30083127E
:100A780003134B0883160313DA00831203134A087F
:100A880083160313D900831203134908831603132B
:100A9800D80083120313480883160313D7000A16D5
:100AA8008A11E8220A128A11831603135608831240
:100AB8000313CB0083160313550883120313CA00CC
:100AC80083160313540883120313C90083160313F0
:100AD800530883120313C8004B0883160313DA0064
:100AE800831203134A0883160313D90083120313CE
:100AF800490883160313D800831203134808831682
:100B08000313D7004430D6007A30D5000030D40023
:100B18000030D3000A168A11E8220A128A118316B5
:100B280003135608831603179300831603135508F7
:100B380083160317920083160313540883160317AA
:100B480091008316031353088316031790000A169F
:100B58008A1151200A128A11831603171008303E91
:100B6800C4006430A4000030A500831203134B08AE
:100B7800831603179300831203134A088316031777
:100B880092008312031349088316031791008312F6
:100B9800031348088316031790000A168A11512078
:100BA8000A128A11831603171108A1001008A00061
:100BB800E8309E0003309F000A168A15D0260A12D4
:100BC8008A11831603171F08A7001E08A6000A1615
:100BD8008A1597270A128A11831603172408303EAC
:100BE800C5000A309E0000309F000A30A400003083
:100BF800A500831203134B0883160317930083126F
:100C080003134A0883160317920083120313490833
:100C180083160317910083120313480883160317DA
:100C280090000A168A1151200A128A118316031796
:100C38001108A7001008A6000A168A1597270A1295
:100C48008A11831603172508A1002408A0000A1694
:100C58008A15D0260A128A11831603171E08303EF9
:100C6800C6000A309E0000309F00831203134B0811
:100C7800831603179300831203134A088316031776
:100C880092008312031349088316031791008312F5
:100C9800031348088316031790000A168A11512077
:100CA8000A128A11831603171108A1001008A00060
:100CB8000A168A15D0260A128A11831603171E08E7
:100CC800303EC7000A309E0000309F008312031395
:100CD8004B0883160313B000831203134A088316C4
:100CE8000313AF0083120313490883160313AE00DE
:100CF80083120313480883160313AD004130AC0078
:100D08002030AB000030AA000030A9000A128A1572
:100D180068210A128A11831603132C0883160317F5
:100D28009300831603132B08831603179200831668
:100D380003132A088316031791008316031329083F
:100D48008316031790000A168A1151200A128A1175
:100D5800831603171108A1001008A0000A168A15A7
:100D6800D0260A128A11831603171E08303EC800BF
:100D780083160313A401A40A02300A168A1539251A
:100D88000A128A118316031744080A168A15FD24C5
:100D98000A128A118316031745080A168A15FD24B4
:100DA8000A128A118316031746080A168A15FD24A3
:100DB8000A128A118316031747080A168A15FD2492
:100DC8000A128A112E300A168A15FD240A128A116F
:100DD8008316031748080A168A15FD240A128A1171
:100DE8008316031749080A168A15FD240A128A1160
:100DF8004F300A168A15FD240A128A117A300A160B
:100E08008A15FD240A128A111B2F8316031743081B
:100E1800003A0319102F1B2F4208013A03197129B0
:100E2800033A03194F2B013A03191D2D1B2F831267
:100E38000313861A202F212F3B2F03308316031705
:100E4800C0000830BF007630BE00BE0B292FBF0B94
:100E5800292FC00B292F00000A3083160313BC006A
:100E68000030BD000A168A155B250A128A11831202
:100E78000313061A402F412F702F033083160317D0
:100E8800C0000830BF007630BE00BE0B492FBF0B34
:100E9800492FC00B492F0000831603174308803AD7
:100EA800FF0080307F02031D5B2F033042020318CE
:100EB8005E2F5F2F6A2F831603174208013EC20078
:100EC80043080318013E003EC300702F013083160B
:100ED8000317C2000030C300023083160317C00096
:100EE8000430BF00B930BE00BE0B782FBF0B782F7F
:100EF800C00B782F7F2F3D290A128A111028031062
:100F080083120313370D380DBE003E08031D8D2FC5
:100F18008E2F972F0030B8000030B7000030B60091
:100F28000030B500FA2F3508B9003608BA0037087E
:100F3800BB003808BC001F300310BC0CBB0CBA0C3B
:100F4800B90CFF3E031DA02F3908BD00B717FF30AD
:100F5800B505FF30B605FF30B7050030B805963047
:100F6800BE02BE1FB82FB92FD32F3E08803A973E36
:100F78000318BF2FC02FC12F8E2F01300310B80CBC
:100F8800B70CB60CB50CFF3E031DC22F0130B900DB
:100F98003908BE07031DD12FD22FC12FEA2F2030C9
:100FA8003E02031CD82FD92FE52F8E2F0130B90010
:100FB8000310B50DB60DB70DB80DB90BDC2F013008
:100FC800BE023E08031DE92FEA2FDA2F3D08031958
:100FD800EE2FEF2FFA2FB509B609B709B809B50AE8
:0E0FE8000319B60A0319B70A0319B80A08005C
:101000008312031386110615831603133108AF00EC
:101010003008AE000A168A154C260A128A150800F6
:10102000003083160313BB000030BA000030B90053
:101030000030B800B601B7014D280A168A112922DE
:101040000A128A158316031320083807B2000030ED
:10105000031801302107B4010318B40A3907B3009B
:101060000318B40A22083407B5010318B50A3A0771
:10107000B4000318B50A230835073B07B500350847
:10108000BB003408BA003308B9003208B800013098
:10109000B6070318B70A0030B7073708803AB2001E
:1010A0002F08803A3202031D57282E083602031CEF
:1010B0005A285B281D28831603132E08A0002F082A
:1010C000A1000030A11BFF30A200A3003B08A70035
:1010D0003A08A6003908A5003808A4000A168A159F
:1010E0002F270A128A15831603132308B10022083A
:1010F000B0002108AF002008AE00080083160313DB
:101100004408AF004308AE000A128A1510200A12E4
:101110008A15831603133108D2003008D1002F0836
:10112000D0002E08CF005208831203134702031D7C
:10113000AF28831603135108831203134602031DBD
:10114000AF28831603135008831203134502031DAF
:10115000AF28831603134F08831203134402031CA2
:10116000B228B3281529440883160313C700831235
:101170000313450883160313C8008312031346089C
:1011800083160313C900831203134708831603133E
:10119000CA004F08C7025008031C500FD028D1289E
:1011A000C8025108031C510FD628D728C90252087B
:1011B000031C520FDC28DD28CA024A08A400490893
:1011C000A3004808A2004708A10000300A168A11AF
:1011D0006F210A128A15831603132408CE002308F0
:1011E000CD002208CC002108CB00BF30AC008030FD
:1011F000AB000030AA000030A9004E08B0004D0836
:10120000AF004C08AE004B08AD000A128A156821E9
:101210000A128A15831603132C08CE002B08CD0062
:101220002A08CC002908CB005F29831603134F0836
:10123000C7005008C8005108C9005208CA008312EC
:101240000313440883160313C702831203134508CC
:10125000031C450F2C292F2983160313C802831260
:1012600003134608031C460F362939298316031336
:10127000C902831203134708031C470F402943295F
:1012800083160313CA0283120313831603134A0837
:10129000A4004908A3004808A2004708A1000030A4
:1012A0000A168A116F210A128A158316031324085D
:1012B000CE002308CD002208CC002108CB004E0828
:1012C000C6004D08C5004C08C4004B08C300080008
:1012D000831603132C088039B6002C08B10031079F
:1012E000BC00AB1F7429752976293C143C080319EE
:1012F0007A297B298A293C0A031D7F29802988298C
:101300000030AC000030AB000030AA000030A90073
:10131000AB1792290030AC000030AB000030AA00BF
:101320000030A90030088039B1003108B606300815
:10133000B1003107B700AF1F9E299F29A02937149C
:1013400037080319A429A529B429370A031DA92997
:10135000AA29B2290030B0000030AF000030AE0042
:101360000030AD00AF17BC290030B0000030AF0036
:101370000030AE000030AD0037080319C029C12984
:10138000C6293C08031DC529C629CF290030AC0059
:101390000030AB000030AA000030A900AC2C2908B6
:1013A000A0002F080A168A15F5250A128A15831639
:1013B00003132108C2002008C1004108B100B20196
:1013C000B301B4013408BB003308BA003208B900D5
:1013D0003108B8004208B100B201B301B4013408C9
:1013E000C0003308BF003208BE003108BD002A0823
:1013F000A0002E080A168A15F5250A128A158316EA
:1014000003132108C2002008C1004108B100B20145
:10141000B301B4013108B807320803110318013EC3
:101420000319132AB907330803110318013E0319DE
:101430001A2ABA07340803110318013E0319212A96
:10144000BB074208B100B201B301B4013108BD07C6
:10145000320803110318013E03192F2ABE0733086F
:1014600003110318013E0319362ABF07340803117C
:101470000318013E03193D2AC0072B08A0002D08C0
:101480000A168A15F5250A128A15831603132108F0
:10149000C2002008C1004108B100B201B301B4018B
:1014A0003108B807320803110318013E0319592AFD
:1014B000B907330803110318013E0319602ABA075C
:1014C000340803110318013E0319672ABB074208B9
:1014D000B100B201B301B4013108BD0732080311F4
:1014E0000318013E0319752ABE07330803110318B8
:1014F000013E03197C2ABF07340803110318013E7B
:101500000319832AC0070830B1000310B80DB90DC4
:10151000BA0DBB0DB10B852A2A08A0002D080A16AA
:101520008A15F5250A128A15831603132108C200AD
:101530002008C1004108B1004208B200B301B40163
:101540003108B807320803110318013E0319A92A0C
:10155000B907330803110318013E0319B02ABA076B
:10156000340803110318013E0319B72ABB072908E1
:10157000A0002E080A168A15F5250A128A15831668
:1015800003132108C2002008C1004108B10042082D
:10159000B200B301B4013108B807320803110318CF
:1015A000013E0319D42AB907330803110318013E79
:1015B0000319DB2ABA07340803110318013E031983
:1015C000E22ABB070830B1000310B80DB90DBA0DFF
:1015D000BB0DB10BE42A2908A0002D080A168A15B4
:1015E000F5250A128A15831603132108C200200864
:1015F000C1004108B1004208B200B301B401310892
:10160000B807320803110318013E0319082BB90764
:10161000330803110318013E03190F2BBA073408CE
:1016200003110318013E0319162BBB072A08A0005B
:101630002F080A168A15F5250A128A158316031330
:101640002108C2002008C1004108B1004208B200D0
:10165000B301B4013108BD07320803110318013E7C
:101660000319332BBE07330803110318013E031976
:101670003A2BBF07340803110318013E0319412B0D
:10168000C0072B08A0002E080A168A15F5250A1295
:101690008A15831603132108C2002008C1004108DF
:1016A000B1004208B200B301B4013108BD073208ED
:1016B00003110318013E03195E2BBE073308031103
:1016C0000318013E0319652BBF07340803110318E3
:1016D000013E03196C2BC0072B08A0002F080A1627
:1016E0008A15F5250A128A15831603132108C200EC
:1016F0002008C1004108B1004208B200B301B401A2
:1017000008300310B10DB20DB30DB40DFF3E031D33
:10171000812B3108BD07320803110318013E03195C
:10172000922BBE07330803110318013E0319992BAE
:10173000BF07340803110318013E0319A02BC0078B
:101740003808B1003908B2003A08B3003B08B400C9
:1017500018300310B40CB30CB20CB10CFF3E031DD7
:10176000A92B3108BD07320803110318013E0319E4
:10177000BA2BBE07330803110318013E0319C12B0E
:10178000BF07340803110318013E0319C82BC00713
:101790000830B1000310B80DB90DBA0DBB0DB10B77
:1017A000CA2B3C083707B100B201B20D3108823EA6
:1017B000C10032080318013EFF3EC200FC2B01307D
:1017C000B1000310BD0DBE0DBF0DC00DB10BE12B5F
:1017D000BB1FEB2BEC2BED2B3D140130B1000310A4
:1017E000B80DB90DBA0DBB0DB10BEF2BFF30C10712
:1017F0000318C20AFF30C207BF1FFF2B002CDF2BCC
:10180000B701BB1F042C052C212CFF303805B1007B
:10181000FF303905B200FF303A05B3007F303B0599
:10182000B40034083304320431040319182C192C81
:101830001C2CB701B70A212C3D1C1F2C202C212C5D
:10184000192C37080319252C262C572C0130BD07DD
:10185000003003180130BE07003003180130BF0705
:10186000003003180130C007401C372C382C572C8F
:101870003D08B1003E08B2003F08B3004008B40084
:101880000130B500340DB40CB30CB20CB10CB50B77
:10189000422C3408C0003308BF003208BE003108B3
:1018A000BD000130C1070318C20A0030C207420858
:1018B000803AFF0080307F02031D602CFF30410220
:1018C000031C632C642C6F2C7F3083160313C00021
:1018D0008030BF000030BE000030BD00A02C831659
:1018E00003134208803AFF0080307F02031D7A2CE8
:1018F0000130410203187D2C7E2C8A2C0030831687
:101900000313C0000030BF000030BE000030BD0037
:10191000B601A02C831603134108BC00FF30BD059F
:10192000FF30BE057F30BF050030C0053C1C992C40
:101930009A2C9B2CBF173C08B1000310310CC0003F
:101940003608B1003108C0044008AC003F08AB00C5
:101950003E08AA003D08A900080083160317BC0131
:10196000BD010130B4000030B50083160313A4019B
:10197000A40A01300A168A1539250A128A15103070
:101980000A168A15CC250A128A1583160313A40198
:10199000A40A02300A168A1539250A128A154E3011
:1019A0000A168A15CC250A128A15103083160317D9
:1019B000AF003930AE000D30AD00AD0BDD2CAE0BFD
:1019C000DD2CAF0BDD2C0A168A1553240A128A155A
:1019D000F72F83160313A401A40A01300A168A15EF
:1019E00039250A128A1501300A168A15CC250A12E1
:1019F0008A15831603173C08AD0001300310AD0DA6
:101A0000FF3E031DFE2C03102D0DCA3E84008317DC
:101A1000000883160313D700840A0008D800840A3C
:101A20000008D900840A0008DA004430D6007A3071
:101A3000D5000030D4000030D3000A168A11E82205
:101A40000A128A1583160313560883160317930088
:101A50008316031355088316031792008316031386
:101A60005408831603179100831603135308831633
:101A7000031790000A168A1151200A128A1583163C
:101A800003171008303EB6006430A4000030A500F3
:101A90003C08AD0001300310AD0DFF3E031D4B2D82
:101AA00003102D0DCA3E8400831700089000840A9D
:101AB00000089100840A00089200840A000893003C
:101AC0000A168A1151200A128A1583160317110863
:101AD000A1001008A000E8309E0003309F000A1605
:101AE0008A15D0260A128A15831603171F08A70025
:101AF0001E08A6000A168A1597270A128A15831649
:101B000003172408303EB7000A309E0000309F00C3
:101B10000A30A4000030A5003C08AD0001300310DD
:101B2000AD0DFF3E031D8F2D03102D0DCA3E840009
:101B3000831700089000840A00089100840A0008B6
:101B40009200840A000893000A168A1151200A1292
:101B50008A15831603171108A7001008A6000A1695
:101B60008A1597270A128A15831603172508A100DC
:101B70002408A0000A168A15D0260A128A15831690
:101B800003171E08303EB8000A309E0000309F0048
:101B90003C08AD0001300310AD0DFF3E031DCB2D01
:101BA00003102D0DCA3E8400831700089000840A9C
:101BB00000089100840A00089200840A000893003B
:101BC0000A168A1151200A128A1583160317110862
:101BD000A1001008A0000A168A15D0260A128A153C
:101BE000831603171E08303EB9000A309E000030ED
:101BF0009F003C08AD0001300310AD0DFF3E031DFA
:101C0000FC2D03102D0DCA3E8400831700089000A0
:101C1000840A00089100840A00089200840A0008DF
:101C200093000A168A1151200A128A158316031787
:101C300011089900100898000A309A0000309B00A3
:101C40000A168A15A5250A128A158316031719087C
:101C5000A1001808A0000A168A15D0260A128A15B3
:101C6000831603171E08303EBA000A309E0000306B
:101C70009F003C08AD0001300310AD0DFF3E031D79
:101C80003C2E03102D0DCA3E8400831700089000DF
:101C9000840A00089100840A00089200840A00085F
:101CA00093000A168A1151200A128A158316031707
:101CB000110899001008980064309A0000309B00C9
:101CC0000A168A15A5250A128A15831603171908FC
:101CD000A1001808A0000A168A15D0260A128A1533
:101CE000831603171E08303EBB0083160313A4019E
:101CF000A40A02300A168A1539250A128A15831693
:101D0000031736080A168A15FD240A128A15831647
:101D1000031737080A168A15FD240A128A15831636
:101D2000031738080A168A15FD240A128A15831625
:101D3000031739080A168A15FD240A128A152E304F
:101D40000A168A15FD240A128A15831603173A0803
:101D50000A168A15FD240A128A15831603173B08F2
:101D60000A168A15FD240A128A1567300A168A1582
:101D7000FD240A128A1583120313861AC02EC12E5F
:101D8000EE2E033083160317AF000830AE00763016
:101D9000AD00AD0BC92EAE0BC92EAF0BC92E000086
:101DA000831603173D08803AFF0080307F02031D31
:101DB000DB2E03303C020318DE2EDF2EEA2E8316C4
:101DC00003173C08013EBC003D080318013E003EDD
:101DD000BD00EE2E83160317BC01BD018312031351
:101DE000061AF32EF42EF72F033083160317AF00D5
:101DF0000830AE007630AD00AD0BFC2EAE0BFC2EE5
:101E0000AF0BFC2E00000A168A1553240A128A15FD
:101E100083160313A401A40A01300A168A15392572
:101E20000A128A153A300A168A15CC250A128A1522
:101E300083160313A401A40A02300A168A15392551
:101E40000A128A152E300A168A15CC250A128A150E
:101E50001F3083160317AF007130AE001D30AD0088
:101E6000AD0B302FAE0B302FAF0B302F372F0A308A
:101E700083160313C3000030C4000A128A157E20A3
:101E80000A128A1583160313460883160317930054
:101E90008316031345088316031792008316031352
:101EA000440883160317910083160313430883160F
:101EB000031790000A168A1151200A128A158316F8
:101EC00003171308B3001208B2001108B10010087C
:101ED000B0003C08AD0001300310AD0DFF3E031D06
:101EE0006C2F03102D0DCA3E840083170008831643
:101EF0000313D300840A0008D400840A0008D50024
:101F0000840A0008D60083160317330883160313C8
:101F1000A40083160317320883160313A300831645
:101F20000317310883160313A20083160317300822
:101F300083160313A10000300A168A116F210A12BA
:101F40008A15831603132408DA002308D90022080F
:101F5000D8002108D7000A168A11E8220A128A1529
:101F600083160313560883160317E1008316031321
:101F7000550883160317E0008316031354088316CD
:101F80000317DF0083160313530883160317DE00BD
:101F9000053083160313EF008316031761089300BF
:101FA000600892005F0891005E0890000A168A118E
:101FB00051200A128A158316031710080A168A156B
:101FC000E2240A128A15023083160317AF00043088
:101FD000AE00B930AD00AD0BEB2FAE0BEB2FAF0B5E
:101FE000EB2FF22F83160317B401B501E32C8316F0
:101FF0000317340335040319FE2FFF2FE92C0800C3
:1020000083120313540883160313D6008312031399
:10201000530883160313D500831203135208831643
:102020000313D40083120313510883160313D30040
:1020300083160317110883160313C40083160317AE
:10204000100883160313C3000A128A157E200A168D
:102050008A11831603134608DA004508D90044089C
:10206000D8004308D7000A168A11E8220A168A11F6
:10207000831603135608831603179300831603135E
:10208000550883160317920083160313540883160A
:102090000317910083160313530883160317900048
:1020A0000800031083160317120D130D8316031374
:1020B000EE006E08031D5D285E2869280030831637
:1020C0000317930000309200003091000030900020
:1020D000DE288316031710089400110895001208D3
:1020E0009600130897001F300310970C960C950C60
:1020F000940CFF3E031D7428140883160313ED008F
:10210000831603179217FF309005FF309105FF30BB
:10211000920500309305963083160313EE02EE1FEE
:1021200092289328B1286E08803A973E0318992880
:102130009A289B285E280130031083160317930CFE
:10214000920C910C900CFF3E031D9C2801309400D2
:10215000140883160313EE07031DAF28B0289B282D
:10216000CC2820306E02031CB628B728C7285E286A
:1021700001308316031794000310900D910D920DFA
:10218000930D940BBC28013083160313EE026E08E6
:10219000031DCB28CC28B8286D080319D028D128D6
:1021A000DE28831603179009910992099309900A72
:1021B0000319910A0319920A0319930A08008C1D46
:1021C000E228E32866291412141BE728E828EC28E3
:1021D000941FEB28EC28F1281308D0001413941353
:1021E000141683160313941AF628F72818291419BD
:1021F000FA28FB281829831203131308D0008C1126
:10220000141683160313141C0629072901298312A7
:1022100003131308BF00C0013F08CC004008CD00E5
:10222000A53083120313BF00BF0B1429172963299C
:10223000941A1B291C296329141D1F29202963298D
:10224000831203131308D000831603131410831290
:1022500003134B08A7004A08A6004908A500480830
:10226000A4004130A3002030A2000030A1000030C3
:10227000A0000A168A11BB240A168A1183120313BE
:102280002308B8002208B7002108B6002008B500CE
:102290000A128A1183270A168A1183120313360839
:1022A000CF003508CE004E0893001416A5308312D7
:1022B0000313BF00BF0B5A295D298316031314189B
:1022C000622963295D29831203138C114308FF00DF
:1022D00042088A00410E8300FE0E7E0E090083161E
:1022E0000313A90029080319762977298B29A41F2C
:1022F0007A297B298B292109AB002209AC0023090B
:10230000AD002409AE00AB0A0319AC0A0319AD0AEB
:102310000319AE0A93292408AE002308AD00220851
:10232000AC002108AB002408230422042104031D6F
:102330009A299B29A4290030A4000030A300003072
:10234000A2000030A100282A9630AA00B42901304A
:10235000A5002508AA0701300310AE0CAD0CAC0C8B
:10236000AB0CFF3E031DAC29FE302E05031DB92921
:10237000BA29A729D6290130A5002508AA070130C6
:10238000AB07003003180130AC07003003180130F0
:10239000AD07003003180130AE0701300310AE0C5A
:1023A000AD0CAC0CAB0CFF3E031DCE29FF302E054F
:1023B000031DDB29DC29BB29E8290130AA020130F1
:1023C000A5000310AB0DAC0DAD0DAE0DA50BE129B5
:1023D000AD1BEB29EC29F22902302A020318F1295E
:1023E000F229DD292A18F529F629FE29FF30AB0547
:1023F000FF30AC057F30AD05FF30AE050310AA0CF1
:102400002A08A500A601A701A80118300310A50DF0
:10241000A60DA70DA80DFF3E031D062A2508AB0437
:102420002608AC042708AD042808AE0429080319BF
:102430001A2A1B2A202AA41F1E2A1F2A202AAE1766
:102440002E08A4002D08A3002C08A2002B08A10030
:102450000800003083160313AB000030AA000030E0
:10246000A9000030A80083120313861102308316DE
:102470000313A6000430A500B930A400A40B3E2A23
:10248000A50B3E2AA60B3E2A452A831203130619E2
:102490004A2A4B2A452A83160313AC01AD01831245
:1024A00003138615532A831603132808A40029084A
:1024B000A5002A08A6002B08A70001300310A40DD0
:1024C000A50DA60DA70DFF3E031D5E2A2708AB0034
:1024D0002608AA002508A9002408A8006F2A83124C
:1024E00003138611732A83120313061D782A792A8F
:1024F000892A013083160313A8070030031801301E
:10250000A907003003180130AA0700300318013072
:10251000AB07013083160313AC070318AD0A003074
:10252000AD072D08803AFF0080307F02031D9A2AF4
:1025300018302C02031C9D2A9E2A4F2A831603134F
:10254000AC01AD01B32A831203138615A72A8312A7
:1025500003138611AB2A013083160313AC0703184B
:10256000AD0A0030AD072D08803AA4008312031392
:102570005608803A831603132402031DC52A8312CA
:1025800003135508831603132C02031CC82AC92AF7
:10259000A32A0030831603132806A400003029065E
:1025A000A50080302A06A60000302B06A7002708C9
:1025B000AB002608AA002508A9002408A8002B08BB
:1025C000A3002A08A2002908A1002808A0000800EA
:1025D000831603135A088039E4005A08DB005B07AE
:1025E000EB00D91FF42AF52AF62A6B146B0803199D
:1025F000FA2AFB2A0B2B6B0A031DFF2A002B082B40
:102600000030DA000030D9000030D8000030D700A8
:10261000D917DA01132B0030DA000030D90000306E
:10262000D8000030D70056088039DB005B08E4068C
:102630005608DB005B07EC00D51F1F2B202B212B3E
:102640006C146C080319252B262B362B6C0A031DE2
:102650002A2B2B2B332B0030D6000030D500003036
:10266000D4000030D300D517D6013E2B0030D60061
:102670000030D5000030D4000030D3005608550497
:1026800054045304031D452B462B5F2B0030DA0006
:102690000030D9000030D8000030D7008030D90495
:1026A0007F30DA046408DB005B08DA045A08D600DD
:1026B0005908D5005808D4005708D300BA2C6B0825
:1026C000031D632B642B6D2B0030D6000030D5002A
:1026D0000030D4000030D300BA2C6B08DB00DC01E2
:1026E0005C08DE006C085B02DD00031CDE035D0895
:1026F0007F3EE5005E080318013E003EE6005A08F2
:10270000E3005908E2005808E1005708E0000030F3
:10271000DA000030D9000030D8000030D700003097
:10272000EA000030E9000030E8000030E700EC018A
:10273000E32B6C0803199D2B9E2BBE2B0130DB0075
:102740000310E00DE10DE20DE30DDB0BA02B0130DA
:10275000DB000310D70DD80DD90DDA0DDB0BA92B3B
:10276000EA1FB32BB42BB52B57140130DB00031039
:10277000E70DE80DE90DEA0DDB0BB72B56086302F8
:10278000031DCC2B55086202031DCC2B540861029B
:10279000031DCC2B53086002031CCF2BD02BDF2B47
:1027A0006A175308E0025408031C540FE10255084D
:1027B000031C550FE2025608031C560FE3020130BA
:1027C000DB005B08EC071A306C02031CE82BE92BDA
:1027D000992B63086204610460040319F02BF12B48
:1027E000102C6714102C0130DB000310D70DD80D0E
:1027F000D90DDA0DDB0BF52BEA1FFF2B002C012C7A
:1028000057140130DB000310E70DE80DE90DEA0D68
:10281000DB0B032CFF30E5070318E60AFF30E60761
:10282000D91F132C142CF32BEC01EA1F182C192C94
:10283000352CFF306705DB00FF306805DC00FF301A
:102840006905DD007F306A05DE005E085D045C041A
:102850005B0403192C2C2D2C302CEC01EC0A352CAC
:10286000571C332C342C352C2D2C6C080319392C87
:102870003A2C6B2C0130D707003003180130D807F1
:10288000003003180130D907003003180130DA078F
:102890005A1C4B2C4C2C6B2C5708DB005808DC00C6
:1028A0005908DD005A08DE000130DF005E0DDE0C45
:1028B000DD0CDC0CDB0CDF0B562C5E08DA005D084F
:1028C000D9005C08D8005B08D7000130E507031881
:1028D000E60A0030E6076608803AFF0080307F0293
:1028E000031D742CFF306502031C772C782C862C7A
:1028F000FF3083160313E5000030E6000030DA00F5
:102900000030D9000030D8000030D7008316031300
:102910006608803AFF0080307F02031D912C013051
:1029200065020318942C952CA22C83160313E50141
:10293000E6010030DA000030D9000030D800003065
:10294000D700E401831603136508EB006B1CA92C68
:10295000AA2CAC2CD917B02C7F30DB005B08D90532
:102960006B08DB0003105B0CDA006408DB005B081B
:10297000DA04562B08008312031323088039A800B9
:102980002308F9007907AE00A21FC72CC82CC92C58
:102990002E142E080319CD2CCE2CDD2C2E0A031D4F
:1029A000D22CD32CDB2C0030A3000030A20000304E
:1029B000A1000030A000A217E52C0030A3000030D9
:1029C000A2000030A1000030A00027088039F900E3
:1029D0007908A8062708F9007907AD00A61FF12C91
:1029E000F22CF32C2D142D080319F72CF82C072D9D
:1029F0002D0A031DFC2CFD2C052D0030A7000030F6
:102A0000A6000030A5000030A400A6170F2D00304E
:102A1000A7000030A6000030A5000030A4002D085B
:102A20000319132D142D192D2E08031D182D192DE2
:102A3000222D0030A3000030A2000030A1000030A1
:102A4000A000FF2F2008F00026080A168A157E2510
:102A50000A168A11710883120313B4007008B300B8
:102A60003308F900FA01FB01FC017C08AC007B088B
:102A7000AB007A08AA007908A9003408F900FA0125
:102A8000FB01FC017C08B2007B08B1007A08B000B1
:102A90007908AF002108F00025080A168A157E255E
:102AA0000A168A11710883120313B4007008B30068
:102AB0003308F900FA01FB01FC017908A9077A083B
:102AC00003110318013E0319662DAA077B080311A1
:102AD0000318013E03196D2DAB077C080311031881
:102AE000013E0319742DAC073408F900FA01FB010B
:102AF000FC017908AF077A0803110318013E031996
:102B0000822DB0077B0803110318013E0319892D9C
:102B1000B1077C0803110318013E0319902DB20779
:102B20002208F00024080A168A157E250A168A1142
:102B3000710883120313B4007008B3003308F9005E
:102B4000FA01FB01FC017908A9077A0803110318AF
:102B5000013E0319AC2DAA077B0803110318013E9F
:102B60000319B32DAB077C0803110318013E0319A9
:102B7000BA2DAC073408F900FA01FB01FC01790811
:102B8000AF077A0803110318013E0319C82DB007D7
:102B90007B0803110318013E0319CF2DB1077C08F0
:102BA00003110318013E0319D62DB2070830F900AE
:102BB0000310A90DAA0DAB0DAC0DF90BD82D2108F2
:102BC000F00024080A168A157E250A168A11710853
:102BD00083120313B4007008B3003308F9003408FB
:102BE000FA00FB01FC017908A9077A080311031810
:102BF000013E0319FC2DAA077B0803110318013EAF
:102C00000319032EAB077C0803110318013E0319B7
:102C10000A2EAC072008F00025080A168A157E2522
:102C20000A168A11710883120313B4007008B300E6
:102C30003308F9003408FA00FB01FC017908A90700
:102C40007A0803110318013E0319272EAA077B08EF
:102C500003110318013E03192E2EAB077C08031144
:102C60000318013E0319352EAC070830F900031094
:102C7000A90DAA0DAB0DAC0DF90B372E2008F000F5
:102C800024080A168A157E250A168A1171088312ED
:102C90000313B4007008B3003308F9003408FA00D5
:102CA000FB01FC017908A9077A0803110318013E0A
:102CB00003195B2EAA077B0803110318013E0319B1
:102CC000622EAB077C0803110318013E0319692E1D
:102CD000AC072108F00026080A168A157E250A1678
:102CE0008A11710883120313B4007008B30033080B
:102CF000F9003408FA00FB01FC017908AF077A08F3
:102D000003110318013E0319862EB0077B08031137
:102D10000318013E03198D2EB1077C080311031817
:102D2000013E0319942EB2072208F00025080A1666
:102D30008A157E250A168A11710883120313B400BE
:102D40007008B3003308F9003408FA00FB01FC01F5
:102D50007908AF077A0803110318013E0319B12E51
:102D6000B0077B0803110318013E0319B82EB10701
:102D70007C0803110318013E0319BF2EB207220875
:102D8000F00026080A168A157E250A168A1171088F
:102D900083120313B4007008B3003308F900340839
:102DA000FA00FB01FC0108300310F90DFA0DFB0DD0
:102DB000FC0DFF3E031DD42E7908AF077A080311DE
:102DC0000318013E0319E52EB0077B080311031811
:102DD000013E0319EC2EB1077C0803110318013ED4
:102DE0000319F32EB2072908F9002A08FA002B0864
:102DF000FB002C08FC0018300310FC0CFB0CFA0C38
:102E0000F90CFF3E031DFC2E7908AF077A08031169
:102E10000318013E03190D2FB0077B080311031897
:102E2000013E0319142FB1077C0803110318013E5A
:102E300003191B2FB2070830F9000310A90DAA0DC2
:102E4000AB0DAC0DF90B1D2F2E082D07F900FA0163
:102E5000FA0D7908823EB3007A080318013EFF3E5E
:102E6000B4004F2F0130F9000310AF0DB00DB10DBC
:102E7000B20DF90B342FAC1F3E2F3F2F402F2F14D4
:102E80000130F9000310A90DAA0DAB0DAC0DF90B23
:102E9000422FFF30B3070318B40AFF30B407B11F45
:102EA000522F532F322FAD01AC1F572F582F742F95
:102EB000FF302905F900FF302A05FA00FF302B0505
:102EC000FB007F302C05FC007C087B047A0479042D
:102ED00003196B2F6C2F6F2FAD01AD0A742F2F1CB0
:102EE000722F732F742F6C2F2D080319782F792FC1
:102EF000AA2F0130AF07003003180130B0070030AF
:102F000003180130B107003003180130B207321C3A
:102F10008A2F8B2FAA2F2F08F9003008FA003108CA
:102F2000FB003208FC000130FD007C0DFC0CFB0CAA
:102F3000FA0CF90CFD0B952F7C08B2007B08B10050
:102F40007A08B0007908AF000130B3070318B40A5B
:102F50000030B4073408803AFF0080307F02031D40
:102F6000B32FFF303302031CB62FB72FC22F7F3091
:102F700083120313B2008030B1000030B000003083
:102F8000AF00F32F831203133408803AFF00803020
:102F90007F02031DCD2F013033020318D02FD12F14
:102FA000DD2F003083120313B2000030B100003077
:102FB000B0000030AF00A801F32F831203133308D1
:102FC000AE00FF30AF05FF30B0057F30B1050030F7
:102FD000B2052E1CEC2FED2FEE2FB1172E08F900A5
:102FE0000310790CB2002808F9007908B2043208FD
:102FF000A3003108A2003008A1002F08A00008009B
:1030000018308A000408840A82070034503465347A
:1030100073346F34203463346F346E346F346334FC
:10302000693464346F343A340034433461346C347A
:103030006934623472346134633469346F346E34A9
:103040002034643465340034523465347434693463
:1030500072346534203465346C3420347034653413
:1030600073346F340034593420346534733470341D
:103070006534723465342E342E342E34003450349A
:103080006F346E3465347234203470346534733484
:103090006F3400344C346934733474346F342E34E8
:1030A0002E342E340034423461346C3461346E3446
:1030B0007A34613400345034453453344F343A3424
:0230C0000034DA
:10388A000034003480343F34013400348316031387
:10389A00A0002008831203138800080000300A16CB
:1038AA008A1519250A168A1501300A168A15192544
:1038BA000A168A15080083160313A000200883122B
:1038CA0003178D00831603178C130C148312031726
:1038DA000C0808007E088A007F0882000A168A15EA
:1038EA006F240A168A158000840A04087D060319C3
:1038FA000034FF0A0319FE0A732C003400344A34D8
:10390A00433400340034E734433400340034193487
:10391A004334003400344A344334003400348034AD
:10392A003F3483160313230883120313D400831628
:10393A000313220883120313D300831603132108E7
:10394A0083120313D200831603132008831203136E
:10395A00D100080083160313230883120313C70038
:10396A0083160313220883120313C6008316031354
:10397A00210883120313C500831603132008831238
:10398A000313C400080083160313A0002008930041
:10399A003630831203139400803083160313940085
:1039AA0001309100871507168B170B178312031323
:1039BA008C11831603138C150800831603179800BD
:1039CA00831603136F08831203178D0083160317D8
:1039DA001808831203178C00831603178C130C150F
:1039EA008B1355308D00AA308D008C140C110800F1
:1039FA0083160313A2008312031389148316031375
:103A0A0022080A168A154B240A168A1583120313EA
:103A1A000915193083160313A100A10B122D152DB8
:103A2A00831203130911080083160313A3008312D8
:103A3A00031389108316031323080A168A154B24C5
:103A4A000A168A158312031309150B3083160313FA
:103A5A00A2006130A100A10B302DA20B302D352D13
:103A6A00831203130911080083160313A500250303
:103A7A00031D402D412D4B2D24087F3EA60026080C
:103A8A000A168A1519250A168A155A2D023025068C
:103A9A00031D502D512D5A2D2408BF3EA60026087D
:103AAA000A168A1519250A168A1508008316031399
:103ABA003D08AF003C08AE000A128A1510200A160B
:103ACA008A15831603133108C1003008C0002F0875
:103ADA00BF002E08BE004108A3004008A2003F080C
:103AEA00A1003E08A0000A168A15AF240A168A15F4
:103AFA000800F800F401F5017008F200F3017208F9
:103B0A00F6007308F700781C8B2D8C2D922D760801
:103B1A00F4070318F50A7708F50701300310F60DC4
:103B2A00F70DFF3E031D932D0310F80C7808031DB3
:103B3A009F2DA02D882D7508F1007408F00008004B
:103B4A00831603179C019D01181CAC2DAD2DB32DB6
:103B5A001A089C0703189D0A1B089D0701300310C9
:103B6A009A0D9B0DFF3E031DB42D01300310990CD5
:103B7A00980CFF3E031DBB2D18081904031DC62D02
:103B8A00C72DA92D1D0899001C0898000800831646
:103B9A000313A500A301A401E72D23082507840028
:103BAA000A168A1500200A168A150A168A15FD248D
:103BBA000A168A15013083160313A3070318A40AE9
:103BCA000030A4072308250784000A168A15002056
:103BDA000A168A15003A031DF32DF42DD22D08007A
:103BEA0083160313A800A401A5012008A200A301BB
:103BFA002208A6002308A700281C042E052E0B2E37
:103C0A002608A4070318A50A2708A50701300310E8
:103C1A00A60DA70DFF3E031D0C2E0310A80C2808A5
:103C2A00031D182E192E012E2508A1002408A00014
:103C3A000800831603178801890134308316031399
:103C4A0086008801831203138601880183160313F1
:103C5A0089018312031309107030831603138F042A
:103C6A000F140A168A157C260A168A1550300A1667
:103C7A008A15C8240A168A158B178B150B108316FA
:103C8A000313811316161516961695160800622E3A
:103C9A00013083120313D5000030D600742E03308E
:103CAA0083120313D5000030D600742E023083121B
:103CBA000313D5000030D600742E831603132F0881
:103CCA00003A0319692E742E2E08203A03195B2E26
:103CDA00603A0319542EC03A03194D2E742E8312DA
:103CEA0086110A168A1129220A168A150800003036
:103CFA000A168A154B240A168A15273083160313C7
:103D0A00A500F430A400A40B882EA50B882E000071
:103D1A0030300A168A1519250A168A150B308316A9
:103D2A000313A5006130A400A40B992EA50B992EAC
:103D3A009E2E30300A168A1519250A168A15413020
:103D4A0083160313A400A40BA82EAB2E30300A1638
:103D5A008A1519250A168A1538300A168A15192558
:103D6A000A168A1500300A168A1519250A168A159E
:103D7A000C300A168A1519250A168A1500300A16F1
:103D8A008A1519250A168A1506300A168A1519255A
:103D9A000A168A15080083160317A301A11FD62E37
:103DAA00D72EDE2EA009A109A00A0319A10AA30190
:103DBA00A30A9F1FE12EE22EE72E9E099F099E0A63
:103DCA0003199F0A1E081F040319EC2EED2E202F3B
:103DDA00A201A20AFF2E013003109E0D9F0DFF3E85
:103DEA00031DF12E013083160313EF006F088316AB
:103DFA000317A2079F1F022F032FF02E1F0821026D
:103E0A00031D092F1E082002031C0C2F0D2F132F30
:103E1A001E08A0021F08031CA103A10201300310FF
:103E2A009F0C9E0CFF3E031D142F0130A202031D9E
:103E3A001F2F202F032F23080319242F252F2A2F62
:103E4A00A009A109A00A0319A10A21089F002008B4
:103E5A009E000800003083160313AC000030AB004C
:103E6A000030AA000030A9002308220421042004FB
:103E7A000319402F412F8E2FAD01AD0A512F01306A
:103E8A00A8000310A00DA10DA20DA30DA80B462F8B
:103E9A000130A8002808AD07A31F542F552F442F1F
:103EAA000130A8000310A90DAA0DAB0DAC0DA80B8B
:103EBA00572F23082702031D6C2F22082602031DF1
:103ECA006C2F21082502031D6C2F20082402031CD5
:103EDA006F2F702F7F2F2008A4022108031C210FA7
:103EEA00A5022208031C220FA6022308031C230F83
:103EFA00A702291401300310A30CA20CA10CA00CD8
:103F0A00FF3E031D802F0130AD02031D8D2F8E2F22
:103F1A00552F2C08A3002B08A2002A08A100290863
:103F2A00A000080083160317AA01A51F9D2F9E2F24
:103F3A00A52FA409A509A40A0319A50AAA01AA0A70
:103F4A00A71FA82FA92FB22FA609A709A60A0319E6
:103F5A00A70A0130A8002808AA06AB01AC01240868
:103F6A0025040319B92FBA2FF12FA901A90AC82FBD
:103F7A0001300310A40DA50DFF3E031DBE2F013015
:103F8A00A8002808A907A51FCB2FCC2FBD2F0130C9
:103F9A000310AB0DAC0DFF3E031DCD2F25082702E4
:103FAA00031DD92F24082602031CDC2FDD2FE42F42
:103FBA002408A6022508031CA703A7022B14013014
:103FCA000310A50CA40CFF3E031DE52F0130A90226
:103FDA00031DF02FF12FCC2F2A080319F52FF62FE6
:103FEA00FB2FAB09AC09AB0A0319AC0A2C08A500D4
:0E3FFA002B08A4000800FF3FFF3FFF3FFF3FE2
:04400E00F420FF3F5C
:00000001FF
